{
    "_format": "hh-sol-artifact-1",
    "contractName": "MyEpicNFT",
    "sourceName": "contracts/MyEpicNFT.sol",
    "abi": [
        {
            "inputs": [],
            "stateMutability": "nonpayable",
            "type": "constructor"
        },
        {
            "anonymous": false,
            "inputs": [
                {
                    "indexed": true,
                    "internalType": "address",
                    "name": "owner",
                    "type": "address"
                },
                {
                    "indexed": true,
                    "internalType": "address",
                    "name": "approved",
                    "type": "address"
                },
                {
                    "indexed": true,
                    "internalType": "uint256",
                    "name": "tokenId",
                    "type": "uint256"
                }
            ],
            "name": "Approval",
            "type": "event"
        },
        {
            "anonymous": false,
            "inputs": [
                {
                    "indexed": true,
                    "internalType": "address",
                    "name": "owner",
                    "type": "address"
                },
                {
                    "indexed": true,
                    "internalType": "address",
                    "name": "operator",
                    "type": "address"
                },
                {
                    "indexed": false,
                    "internalType": "bool",
                    "name": "approved",
                    "type": "bool"
                }
            ],
            "name": "ApprovalForAll",
            "type": "event"
        },
        {
            "anonymous": false,
            "inputs": [
                {
                    "indexed": false,
                    "internalType": "address",
                    "name": "sender",
                    "type": "address"
                },
                {
                    "indexed": false,
                    "internalType": "uint256",
                    "name": "tokenId",
                    "type": "uint256"
                }
            ],
            "name": "NewEpicNFTMinted",
            "type": "event"
        },
        {
            "anonymous": false,
            "inputs": [
                {
                    "indexed": true,
                    "internalType": "address",
                    "name": "from",
                    "type": "address"
                },
                {
                    "indexed": true,
                    "internalType": "address",
                    "name": "to",
                    "type": "address"
                },
                {
                    "indexed": true,
                    "internalType": "uint256",
                    "name": "tokenId",
                    "type": "uint256"
                }
            ],
            "name": "Transfer",
            "type": "event"
        },
        {
            "inputs": [
                {
                    "internalType": "address",
                    "name": "to",
                    "type": "address"
                },
                {
                    "internalType": "uint256",
                    "name": "tokenId",
                    "type": "uint256"
                }
            ],
            "name": "approve",
            "outputs": [],
            "stateMutability": "nonpayable",
            "type": "function"
        },
        {
            "inputs": [
                {
                    "internalType": "address",
                    "name": "owner",
                    "type": "address"
                }
            ],
            "name": "balanceOf",
            "outputs": [
                {
                    "internalType": "uint256",
                    "name": "",
                    "type": "uint256"
                }
            ],
            "stateMutability": "view",
            "type": "function"
        },
        {
            "inputs": [
                {
                    "internalType": "uint256",
                    "name": "tokenId",
                    "type": "uint256"
                }
            ],
            "name": "getApproved",
            "outputs": [
                {
                    "internalType": "address",
                    "name": "",
                    "type": "address"
                }
            ],
            "stateMutability": "view",
            "type": "function"
        },
        {
            "inputs": [
                {
                    "internalType": "address",
                    "name": "owner",
                    "type": "address"
                },
                {
                    "internalType": "address",
                    "name": "operator",
                    "type": "address"
                }
            ],
            "name": "isApprovedForAll",
            "outputs": [
                {
                    "internalType": "bool",
                    "name": "",
                    "type": "bool"
                }
            ],
            "stateMutability": "view",
            "type": "function"
        },
        {
            "inputs": [],
            "name": "makeAnEpicNFT",
            "outputs": [],
            "stateMutability": "nonpayable",
            "type": "function"
        },
        {
            "inputs": [],
            "name": "maxSupply",
            "outputs": [
                {
                    "internalType": "uint256",
                    "name": "",
                    "type": "uint256"
                }
            ],
            "stateMutability": "view",
            "type": "function"
        },
        {
            "inputs": [],
            "name": "name",
            "outputs": [
                {
                    "internalType": "string",
                    "name": "",
                    "type": "string"
                }
            ],
            "stateMutability": "view",
            "type": "function"
        },
        {
            "inputs": [
                {
                    "internalType": "uint256",
                    "name": "tokenId",
                    "type": "uint256"
                }
            ],
            "name": "ownerOf",
            "outputs": [
                {
                    "internalType": "address",
                    "name": "",
                    "type": "address"
                }
            ],
            "stateMutability": "view",
            "type": "function"
        },
        {
            "inputs": [
                {
                    "internalType": "uint256",
                    "name": "tokenId",
                    "type": "uint256"
                }
            ],
            "name": "pickRandomFirstWord",
            "outputs": [
                {
                    "internalType": "string",
                    "name": "",
                    "type": "string"
                }
            ],
            "stateMutability": "view",
            "type": "function"
        },
        {
            "inputs": [
                {
                    "internalType": "uint256",
                    "name": "tokenId",
                    "type": "uint256"
                }
            ],
            "name": "pickRandomSecondWord",
            "outputs": [
                {
                    "internalType": "string",
                    "name": "",
                    "type": "string"
                }
            ],
            "stateMutability": "view",
            "type": "function"
        },
        {
            "inputs": [
                {
                    "internalType": "uint256",
                    "name": "tokenId",
                    "type": "uint256"
                }
            ],
            "name": "pickRandomThirdWord",
            "outputs": [
                {
                    "internalType": "string",
                    "name": "",
                    "type": "string"
                }
            ],
            "stateMutability": "view",
            "type": "function"
        },
        {
            "inputs": [
                {
                    "internalType": "address",
                    "name": "from",
                    "type": "address"
                },
                {
                    "internalType": "address",
                    "name": "to",
                    "type": "address"
                },
                {
                    "internalType": "uint256",
                    "name": "tokenId",
                    "type": "uint256"
                }
            ],
            "name": "safeTransferFrom",
            "outputs": [],
            "stateMutability": "nonpayable",
            "type": "function"
        },
        {
            "inputs": [
                {
                    "internalType": "address",
                    "name": "from",
                    "type": "address"
                },
                {
                    "internalType": "address",
                    "name": "to",
                    "type": "address"
                },
                {
                    "internalType": "uint256",
                    "name": "tokenId",
                    "type": "uint256"
                },
                {
                    "internalType": "bytes",
                    "name": "_data",
                    "type": "bytes"
                }
            ],
            "name": "safeTransferFrom",
            "outputs": [],
            "stateMutability": "nonpayable",
            "type": "function"
        },
        {
            "inputs": [
                {
                    "internalType": "address",
                    "name": "operator",
                    "type": "address"
                },
                {
                    "internalType": "bool",
                    "name": "approved",
                    "type": "bool"
                }
            ],
            "name": "setApprovalForAll",
            "outputs": [],
            "stateMutability": "nonpayable",
            "type": "function"
        },
        {
            "inputs": [
                {
                    "internalType": "bytes4",
                    "name": "interfaceId",
                    "type": "bytes4"
                }
            ],
            "name": "supportsInterface",
            "outputs": [
                {
                    "internalType": "bool",
                    "name": "",
                    "type": "bool"
                }
            ],
            "stateMutability": "view",
            "type": "function"
        },
        {
            "inputs": [],
            "name": "symbol",
            "outputs": [
                {
                    "internalType": "string",
                    "name": "",
                    "type": "string"
                }
            ],
            "stateMutability": "view",
            "type": "function"
        },
        {
            "inputs": [
                {
                    "internalType": "uint256",
                    "name": "tokenId",
                    "type": "uint256"
                }
            ],
            "name": "tokenURI",
            "outputs": [
                {
                    "internalType": "string",
                    "name": "",
                    "type": "string"
                }
            ],
            "stateMutability": "view",
            "type": "function"
        },
        {
            "inputs": [
                {
                    "internalType": "address",
                    "name": "from",
                    "type": "address"
                },
                {
                    "internalType": "address",
                    "name": "to",
                    "type": "address"
                },
                {
                    "internalType": "uint256",
                    "name": "tokenId",
                    "type": "uint256"
                }
            ],
            "name": "transferFrom",
            "outputs": [],
            "stateMutability": "nonpayable",
            "type": "function"
        }
    ],
    "bytecode": "0x6080604052603160075560405180610160016040528061012f81526020016200466a61012f9139600990805190602001906200003d92919062000683565b506040518060c001604052806040518060400160405280600681526020017f4e617275746f000000000000000000000000000000000000000000000000000081525081526020016040518060400160405280600681526020017f536173756b65000000000000000000000000000000000000000000000000000081525081526020016040518060400160405280600681526020017f53616b757261000000000000000000000000000000000000000000000000000081525081526020016040518060400160405280600481526020017f476172610000000000000000000000000000000000000000000000000000000081525081526020016040518060400160405280600381526020017f4c6965000000000000000000000000000000000000000000000000000000000081525081526020016040518060400160405280600681526020017f48696e6174610000000000000000000000000000000000000000000000000000815250815250600a906006620001bb92919062000714565b506040518060c001604052806040518060400160405280600581526020017f527566667900000000000000000000000000000000000000000000000000000081525081526020016040518060400160405280600481526020017f5a6f726f0000000000000000000000000000000000000000000000000000000081525081526020016040518060400160405280600581526020017f53616e6a6900000000000000000000000000000000000000000000000000000081525081526020016040518060400160405280600481526020017f4e616d690000000000000000000000000000000000000000000000000000000081525081526020016040518060400160405280600681526020017f4672616e6b79000000000000000000000000000000000000000000000000000081525081526020016040518060400160405280600581526020017f526f62696e000000000000000000000000000000000000000000000000000000815250815250600b9060066200033992919062000714565b506040518060c001604052806040518060400160405280600481526020017f4d6574610000000000000000000000000000000000000000000000000000000081525081526020016040518060400160405280600981526020017f4d6963726f736f6674000000000000000000000000000000000000000000000081525081526020016040518060400160405280600581526020017f4170706c6500000000000000000000000000000000000000000000000000000081525081526020016040518060400160405280600681526020017f476f6f676c65000000000000000000000000000000000000000000000000000081525081526020016040518060400160405280600581526020017f5465736c6100000000000000000000000000000000000000000000000000000081525081526020016040518060400160405280600681526020017f416d617a6f6e0000000000000000000000000000000000000000000000000000815250815250600c906006620004b792919062000714565b50348015620004c557600080fd5b506040518060400160405280600981526020017f5371756172654e465400000000000000000000000000000000000000000000008152506040518060400160405280600681526020017f535155415245000000000000000000000000000000000000000000000000000081525081600090805190602001906200054a92919062000683565b5080600190805190602001906200056392919062000683565b505050620005b16040518060400160405280601881526020017f54686973206973206d79204e465420636f6e74726163742e0000000000000000815250620005b760201b620012b51760201c565b62000935565b6200065781604051602401620005ce919062000849565b6040516020818303038152906040527f41304fac000000000000000000000000000000000000000000000000000000007bffffffffffffffffffffffffffffffffffffffffffffffffffffffff19166020820180517bffffffffffffffffffffffffffffffffffffffffffffffffffffffff83818316178352505050506200065a60201b60201c565b50565b60008151905060006a636f6e736f6c652e6c6f679050602083016000808483855afa5050505050565b8280546200069190620008bf565b90600052602060002090601f016020900481019282620006b5576000855562000701565b82601f10620006d057805160ff191683800117855562000701565b8280016001018555821562000701579182015b8281111562000700578251825591602001919060010190620006e3565b5b5090506200071091906200077b565b5090565b82805482825590600052602060002090810192821562000768579160200282015b82811115620007675782518290805190602001906200075692919062000683565b509160200191906001019062000735565b5b5090506200077791906200079a565b5090565b5b80821115620007965760008160009055506001016200077c565b5090565b5b80821115620007be5760008181620007b49190620007c2565b506001016200079b565b5090565b508054620007d090620008bf565b6000825580601f10620007e4575062000805565b601f0160209004906000526020600020908101906200080491906200077b565b5b50565b600062000815826200086d565b62000821818562000878565b93506200083381856020860162000889565b6200083e8162000924565b840191505092915050565b6000602082019050818103600083015262000865818462000808565b905092915050565b600081519050919050565b600082825260208201905092915050565b60005b83811015620008a95780820151818401526020810190506200088c565b83811115620008b9576000848401525b50505050565b60006002820490506001821680620008d857607f821691505b60208210811415620008ef57620008ee620008f5565b5b50919050565b7f4e487b7100000000000000000000000000000000000000000000000000000000600052602260045260246000fd5b6000601f19601f8301169050919050565b613d2580620009456000396000f3fe608060405234801561001057600080fd5b50600436106101165760003560e01c806395d89b41116100a2578063c575757a11610071578063c575757a14610303578063c87b56dd14610333578063d5abeb0114610363578063de9d132f14610381578063e985e9c51461038b57610116565b806395d89b411461027d578063a22cb4651461029b578063b187301f146102b7578063b88d4fde146102e757610116565b806323b872dd116100e957806323b872dd146101b55780632de38d68146101d157806342842e0e146102015780636352211e1461021d57806370a082311461024d57610116565b806301ffc9a71461011b57806306fdde031461014b578063081812fc14610169578063095ea7b314610199575b600080fd5b6101356004803603810190610130919061277d565b6103bb565b6040516101429190612ec4565b60405180910390f35b61015361049d565b6040516101609190612edf565b60405180910390f35b610183600480360381019061017e91906127cf565b61052f565b6040516101909190612e34565b60405180910390f35b6101b360048036038101906101ae9190612741565b6105b4565b005b6101cf60048036038101906101ca919061263b565b6106cc565b005b6101eb60048036038101906101e691906127cf565b61072c565b6040516101f89190612edf565b60405180910390f35b61021b6004803603810190610216919061263b565b6108c8565b005b610237600480360381019061023291906127cf565b6108e8565b6040516102449190612e34565b60405180910390f35b610267600480360381019061026291906125d6565b61099a565b604051610274919061318f565b60405180910390f35b610285610a52565b6040516102929190612edf565b60405180910390f35b6102b560048036038101906102b09190612705565b610ae4565b005b6102d160048036038101906102cc91906127cf565b610afa565b6040516102de9190612edf565b60405180910390f35b61030160048036038101906102fc919061268a565b610c18565b005b61031d600480360381019061031891906127cf565b610c7a565b60405161032a9190612edf565b60405180910390f35b61034d600480360381019061034891906127cf565b610d98565b60405161035a9190612edf565b60405180910390f35b61036b610eea565b604051610378919061318f565b60405180910390f35b610389610ef0565b005b6103a560048036038101906103a091906125ff565b611221565b6040516103b29190612ec4565b60405180910390f35b60007f80ac58cd000000000000000000000000000000000000000000000000000000007bffffffffffffffffffffffffffffffffffffffffffffffffffffffff1916827bffffffffffffffffffffffffffffffffffffffffffffffffffffffff1916148061048657507f5b5e139f000000000000000000000000000000000000000000000000000000007bffffffffffffffffffffffffffffffffffffffffffffffffffffffff1916827bffffffffffffffffffffffffffffffffffffffffffffffffffffffff1916145b8061049657506104958261134e565b5b9050919050565b6060600080546104ac90613423565b80601f01602080910402602001604051908101604052809291908181526020018280546104d890613423565b80156105255780601f106104fa57610100808354040283529160200191610525565b820191906000526020600020905b81548152906001019060200180831161050857829003601f168201915b5050505050905090565b600061053a826113b8565b610579576040517f08c379a00000000000000000000000000000000000000000000000000000000081526004016105709061310f565b60405180910390fd5b6004600083815260200190815260200160002060009054906101000a900473ffffffffffffffffffffffffffffffffffffffff169050919050565b60006105bf826108e8565b90508073ffffffffffffffffffffffffffffffffffffffff168373ffffffffffffffffffffffffffffffffffffffff161415610630576040517f08c379a00000000000000000000000000000000000000000000000000000000081526004016106279061314f565b60405180910390fd5b8073ffffffffffffffffffffffffffffffffffffffff1661064f611424565b73ffffffffffffffffffffffffffffffffffffffff16148061067e575061067d81610678611424565b611221565b5b6106bd576040517f08c379a00000000000000000000000000000000000000000000000000000000081526004016106b49061304f565b60405180910390fd5b6106c7838361142c565b505050565b6106dd6106d7611424565b826114e5565b61071c576040517f08c379a00000000000000000000000000000000000000000000000000000000081526004016107139061316f565b60405180910390fd5b6107278383836115c3565b505050565b6060600061076061073c8461182a565b60405160200161074c9190612df0565b6040516020818303038152906040526119d7565b90506107a16040518060400160405280600d81526020017f72616e64202d20736565643a200000000000000000000000000000000000000081525082611a0a565b600a80549050816107b291906134cf565b90506107f36040518060400160405280601381526020017f72616e64202d20666972737420776f72643a200000000000000000000000000081525082611a0a565b600a818154811061082d577f4e487b7100000000000000000000000000000000000000000000000000000000600052603260045260246000fd5b90600052602060002001805461084290613423565b80601f016020809104026020016040519081016040528092919081815260200182805461086e90613423565b80156108bb5780601f10610890576101008083540402835291602001916108bb565b820191906000526020600020905b81548152906001019060200180831161089e57829003601f168201915b5050505050915050919050565b6108e383838360405180602001604052806000815250610c18565b505050565b6000806002600084815260200190815260200160002060009054906101000a900473ffffffffffffffffffffffffffffffffffffffff169050600073ffffffffffffffffffffffffffffffffffffffff168173ffffffffffffffffffffffffffffffffffffffff161415610991576040517f08c379a00000000000000000000000000000000000000000000000000000000081526004016109889061308f565b60405180910390fd5b80915050919050565b60008073ffffffffffffffffffffffffffffffffffffffff168273ffffffffffffffffffffffffffffffffffffffff161415610a0b576040517f08c379a0000000000000000000000000000000000000000000000000000000008152600401610a029061306f565b60405180910390fd5b600360008373ffffffffffffffffffffffffffffffffffffffff1673ffffffffffffffffffffffffffffffffffffffff168152602001908152602001600020549050919050565b606060018054610a6190613423565b80601f0160208091040260200160405190810160405280929190818152602001828054610a8d90613423565b8015610ada5780601f10610aaf57610100808354040283529160200191610ada565b820191906000526020600020905b815481529060010190602001808311610abd57829003601f168201915b5050505050905090565b610af6610aef611424565b8383611aa6565b5050565b60606000610b2e610b0a8461182a565b604051602001610b1a9190612d89565b6040516020818303038152906040526119d7565b9050600b8054905081610b4191906134cf565b9050600b8181548110610b7d577f4e487b7100000000000000000000000000000000000000000000000000000000600052603260045260246000fd5b906000526020600020018054610b9290613423565b80601f0160208091040260200160405190810160405280929190818152602001828054610bbe90613423565b8015610c0b5780601f10610be057610100808354040283529160200191610c0b565b820191906000526020600020905b815481529060010190602001808311610bee57829003601f168201915b5050505050915050919050565b610c29610c23611424565b836114e5565b610c68576040517f08c379a0000000000000000000000000000000000000000000000000000000008152600401610c5f9061316f565b60405180910390fd5b610c7484848484611c13565b50505050565b60606000610cae610c8a8461182a565b604051602001610c9a9190612d67565b6040516020818303038152906040526119d7565b9050600c8054905081610cc191906134cf565b9050600c8181548110610cfd577f4e487b7100000000000000000000000000000000000000000000000000000000600052603260045260246000fd5b906000526020600020018054610d1290613423565b80601f0160208091040260200160405190810160405280929190818152602001828054610d3e90613423565b8015610d8b5780601f10610d6057610100808354040283529160200191610d8b565b820191906000526020600020905b815481529060010190602001808311610d6e57829003601f168201915b5050505050915050919050565b6060610da3826113b8565b610de2576040517f08c379a0000000000000000000000000000000000000000000000000000000008152600401610dd9906130ef565b60405180910390fd5b6000600660008481526020019081526020016000208054610e0290613423565b80601f0160208091040260200160405190810160405280929190818152602001828054610e2e90613423565b8015610e7b5780601f10610e5057610100808354040283529160200191610e7b565b820191906000526020600020905b815481529060010190602001808311610e5e57829003601f168201915b505050505090506000610e8c611c6f565b9050600081511415610ea2578192505050610ee5565b600082511115610ed7578082604051602001610ebf929190612cc9565b60405160208183030381529060405292505050610ee5565b610ee084611c86565b925050505b919050565b60075481565b6000610efc6008611d2d565b90506007548110610f42576040517f08c379a0000000000000000000000000000000000000000000000000000000008152600401610f3990612fcf565b60405180910390fd5b610f806040518060400160405280601481526020017f76616c6964206d696e7420616d6f756e742035300000000000000000000000008152506112b5565b6000610f8b8261072c565b90506000610f9883610afa565b90506000610fa584610c7a565b90506000838383604051602001610fbe93929190612ced565b604051602081830303815290604052905060006009858585604051602001610fe99493929190612d1e565b60405160208183030381529060405290506110386040518060400160405280601581526020017f0a2d2d2d2d2d205356472064617461202d2d2d2d2d00000000000000000000008152506112b5565b611041816112b5565b61107f6040518060400160405280601581526020017f2d2d2d2d2d2d2d2d2d2d2d2d2d2d2d2d2d2d2d2d0a00000000000000000000008152506112b5565b60006110b38361108e84611d3b565b60405160200161109f929190612dab565b604051602081830303815290604052611d3b565b90506000816040516020016110c89190612e12565b60405160208183030381529060405290506111176040518060400160405280601581526020017f0a2d2d2d2d2d20546f6b656e20555249202d2d2d2d00000000000000000000008152506112b5565b611120816112b5565b61115e6040518060400160405280601581526020017f2d2d2d2d2d2d2d2d2d2d2d2d2d2d2d2d2d2d2d2d0a00000000000000000000008152506112b5565b6111683389611ef9565b6111728882611f17565b611195604051806060016040528060258152602001613c8b602591398933611f8b565b61119f600861202a565b6111de6040518060400160405280600f81526020017f4d696e74656420746f74616c206973000000000000000000000000000000000081525089611a0a565b7febb98688741ffa4c7589bf325de30cf7becb63de567842e1ccdb6cb949fdc82c338960405161120f929190612e9b565b60405180910390a15050505050505050565b6000600560008473ffffffffffffffffffffffffffffffffffffffff1673ffffffffffffffffffffffffffffffffffffffff16815260200190815260200160002060008373ffffffffffffffffffffffffffffffffffffffff1673ffffffffffffffffffffffffffffffffffffffff16815260200190815260200160002060009054906101000a900460ff16905092915050565b61134b816040516024016112c99190612edf565b6040516020818303038152906040527f41304fac000000000000000000000000000000000000000000000000000000007bffffffffffffffffffffffffffffffffffffffffffffffffffffffff19166020820180517bffffffffffffffffffffffffffffffffffffffffffffffffffffffff8381831617835250505050612040565b50565b60007f01ffc9a7000000000000000000000000000000000000000000000000000000007bffffffffffffffffffffffffffffffffffffffffffffffffffffffff1916827bffffffffffffffffffffffffffffffffffffffffffffffffffffffff1916149050919050565b60008073ffffffffffffffffffffffffffffffffffffffff166002600084815260200190815260200160002060009054906101000a900473ffffffffffffffffffffffffffffffffffffffff1673ffffffffffffffffffffffffffffffffffffffff1614159050919050565b600033905090565b816004600083815260200190815260200160002060006101000a81548173ffffffffffffffffffffffffffffffffffffffff021916908373ffffffffffffffffffffffffffffffffffffffff160217905550808273ffffffffffffffffffffffffffffffffffffffff1661149f836108e8565b73ffffffffffffffffffffffffffffffffffffffff167f8c5be1e5ebec7d5bd14f71427d1e84f3dd0314c0f7b2291e5b200ac8c7c3b92560405160405180910390a45050565b60006114f0826113b8565b61152f576040517f08c379a00000000000000000000000000000000000000000000000000000000081526004016115269061302f565b60405180910390fd5b600061153a836108e8565b90508073ffffffffffffffffffffffffffffffffffffffff168473ffffffffffffffffffffffffffffffffffffffff1614806115a957508373ffffffffffffffffffffffffffffffffffffffff166115918461052f565b73ffffffffffffffffffffffffffffffffffffffff16145b806115ba57506115b98185611221565b5b91505092915050565b8273ffffffffffffffffffffffffffffffffffffffff166115e3826108e8565b73ffffffffffffffffffffffffffffffffffffffff1614611639576040517f08c379a000000000000000000000000000000000000000000000000000000000815260040161163090612f8f565b60405180910390fd5b600073ffffffffffffffffffffffffffffffffffffffff168273ffffffffffffffffffffffffffffffffffffffff1614156116a9576040517f08c379a00000000000000000000000000000000000000000000000000000000081526004016116a090612fef565b60405180910390fd5b6116b4838383612069565b6116bf60008261142c565b6001600360008573ffffffffffffffffffffffffffffffffffffffff1673ffffffffffffffffffffffffffffffffffffffff168152602001908152602001600020600082825461170f9190613339565b925050819055506001600360008473ffffffffffffffffffffffffffffffffffffffff1673ffffffffffffffffffffffffffffffffffffffff16815260200190815260200160002060008282546117669190613258565b92505081905550816002600083815260200190815260200160002060006101000a81548173ffffffffffffffffffffffffffffffffffffffff021916908373ffffffffffffffffffffffffffffffffffffffff160217905550808273ffffffffffffffffffffffffffffffffffffffff168473ffffffffffffffffffffffffffffffffffffffff167fddf252ad1be2c89b69c2b068fc378daa952ba7f163c4a11628f55a4df523b3ef60405160405180910390a461182583838361206e565b505050565b60606000821415611872576040518060400160405280600181526020017f300000000000000000000000000000000000000000000000000000000000000081525090506119d2565b600082905060005b600082146118a457808061188d90613486565b915050600a8261189d91906132ae565b915061187a565b60008167ffffffffffffffff8111156118e6577f4e487b7100000000000000000000000000000000000000000000000000000000600052604160045260246000fd5b6040519080825280601f01601f1916602001820160405280156119185781602001600182028036833780820191505090505b5090505b600085146119cb576001826119319190613339565b9150600a8561194091906134cf565b603061194c9190613258565b60f81b818381518110611988577f4e487b7100000000000000000000000000000000000000000000000000000000600052603260045260246000fd5b60200101907effffffffffffffffffffffffffffffffffffffffffffffffffffffffffffff1916908160001a905350600a856119c491906132ae565b945061191c565b8093505050505b919050565b6000816040516020016119ea9190612cb2565b6040516020818303038152906040528051906020012060001c9050919050565b611aa28282604051602401611a20929190612f01565b6040516020818303038152906040527f9710a9d0000000000000000000000000000000000000000000000000000000007bffffffffffffffffffffffffffffffffffffffffffffffffffffffff19166020820180517bffffffffffffffffffffffffffffffffffffffffffffffffffffffff8381831617835250505050612040565b5050565b8173ffffffffffffffffffffffffffffffffffffffff168373ffffffffffffffffffffffffffffffffffffffff161415611b15576040517f08c379a0000000000000000000000000000000000000000000000000000000008152600401611b0c9061300f565b60405180910390fd5b80600560008573ffffffffffffffffffffffffffffffffffffffff1673ffffffffffffffffffffffffffffffffffffffff16815260200190815260200160002060008473ffffffffffffffffffffffffffffffffffffffff1673ffffffffffffffffffffffffffffffffffffffff16815260200190815260200160002060006101000a81548160ff0219169083151502179055508173ffffffffffffffffffffffffffffffffffffffff168373ffffffffffffffffffffffffffffffffffffffff167f17307eab39ab6107e8899845ad3d59bd9653f200f220920489ca2b5937696c3183604051611c069190612ec4565b60405180910390a3505050565b611c1e8484846115c3565b611c2a84848484612073565b611c69576040517f08c379a0000000000000000000000000000000000000000000000000000000008152600401611c6090612f6f565b60405180910390fd5b50505050565b606060405180602001604052806000815250905090565b6060611c91826113b8565b611cd0576040517f08c379a0000000000000000000000000000000000000000000000000000000008152600401611cc79061312f565b60405180910390fd5b6000611cda611c6f565b90506000815111611cfa5760405180602001604052806000815250611d25565b80611d048461182a565b604051602001611d15929190612cc9565b6040516020818303038152906040525b915050919050565b600081600001549050919050565b60606000825190506000811415611d645760405180602001604052806000815250915050611ef4565b60006003600283611d759190613258565b611d7f91906132ae565b6004611d8b91906132df565b90506000602082611d9c9190613258565b67ffffffffffffffff811115611ddb577f4e487b7100000000000000000000000000000000000000000000000000000000600052604160045260246000fd5b6040519080825280601f01601f191660200182016040528015611e0d5781602001600182028036833780820191505090505b5090506000604051806060016040528060408152602001613cb0604091399050600181016020830160005b86811015611eb15760038101905062ffffff818a015116603f8160121c168401518060081b905060ff603f83600c1c1686015116810190508060081b905060ff603f8360061c1686015116810190508060081b905060ff603f831686015116810190508060e01b90508084526004840193505050611e38565b506003860660018114611ecb5760028114611edb57611ee6565b613d3d60f01b6002830352611ee6565b603d60f81b60018303525b508484525050819450505050505b919050565b611f1382826040518060200160405280600081525061220a565b5050565b611f20826113b8565b611f5f576040517f08c379a0000000000000000000000000000000000000000000000000000000008152600401611f56906130af565b60405180910390fd5b80600660008481526020019081526020016000209080519060200190611f86929190612462565b505050565b612025838383604051602401611fa393929190612f31565b6040516020818303038152906040527fe3849f79000000000000000000000000000000000000000000000000000000007bffffffffffffffffffffffffffffffffffffffffffffffffffffffff19166020820180517bffffffffffffffffffffffffffffffffffffffffffffffffffffffff8381831617835250505050612040565b505050565b6001816000016000828254019250508190555050565b60008151905060006a636f6e736f6c652e6c6f679050602083016000808483855afa5050505050565b505050565b505050565b60006120948473ffffffffffffffffffffffffffffffffffffffff16612265565b156121fd578373ffffffffffffffffffffffffffffffffffffffff1663150b7a026120bd611424565b8786866040518563ffffffff1660e01b81526004016120df9493929190612e4f565b602060405180830381600087803b1580156120f957600080fd5b505af192505050801561212a57506040513d601f19601f8201168201806040525081019061212791906127a6565b60015b6121ad573d806000811461215a576040519150601f19603f3d011682016040523d82523d6000602084013e61215f565b606091505b506000815114156121a5576040517f08c379a000000000000000000000000000000000000000000000000000000000815260040161219c90612f6f565b60405180910390fd5b805181602001fd5b63150b7a0260e01b7bffffffffffffffffffffffffffffffffffffffffffffffffffffffff1916817bffffffffffffffffffffffffffffffffffffffffffffffffffffffff191614915050612202565b600190505b949350505050565b6122148383612288565b6122216000848484612073565b612260576040517f08c379a000000000000000000000000000000000000000000000000000000000815260040161225790612f6f565b60405180910390fd5b505050565b6000808273ffffffffffffffffffffffffffffffffffffffff163b119050919050565b600073ffffffffffffffffffffffffffffffffffffffff168273ffffffffffffffffffffffffffffffffffffffff1614156122f8576040517f08c379a00000000000000000000000000000000000000000000000000000000081526004016122ef906130cf565b60405180910390fd5b612301816113b8565b15612341576040517f08c379a000000000000000000000000000000000000000000000000000000000815260040161233890612faf565b60405180910390fd5b61234d60008383612069565b6001600360008473ffffffffffffffffffffffffffffffffffffffff1673ffffffffffffffffffffffffffffffffffffffff168152602001908152602001600020600082825461239d9190613258565b92505081905550816002600083815260200190815260200160002060006101000a81548173ffffffffffffffffffffffffffffffffffffffff021916908373ffffffffffffffffffffffffffffffffffffffff160217905550808273ffffffffffffffffffffffffffffffffffffffff16600073ffffffffffffffffffffffffffffffffffffffff167fddf252ad1be2c89b69c2b068fc378daa952ba7f163c4a11628f55a4df523b3ef60405160405180910390a461245e6000838361206e565b5050565b82805461246e90613423565b90600052602060002090601f01602090048101928261249057600085556124d7565b82601f106124a957805160ff19168380011785556124d7565b828001600101855582156124d7579182015b828111156124d65782518255916020019190600101906124bb565b5b5090506124e491906124e8565b5090565b5b808211156125015760008160009055506001016124e9565b5090565b6000612518612513846131cf565b6131aa565b90508281526020810184848401111561253057600080fd5b61253b8482856133e1565b509392505050565b60008135905061255281613c2e565b92915050565b60008135905061256781613c45565b92915050565b60008135905061257c81613c5c565b92915050565b60008151905061259181613c5c565b92915050565b600082601f8301126125a857600080fd5b81356125b8848260208601612505565b91505092915050565b6000813590506125d081613c73565b92915050565b6000602082840312156125e857600080fd5b60006125f684828501612543565b91505092915050565b6000806040838503121561261257600080fd5b600061262085828601612543565b925050602061263185828601612543565b9150509250929050565b60008060006060848603121561265057600080fd5b600061265e86828701612543565b935050602061266f86828701612543565b9250506040612680868287016125c1565b9150509250925092565b600080600080608085870312156126a057600080fd5b60006126ae87828801612543565b94505060206126bf87828801612543565b93505060406126d0878288016125c1565b925050606085013567ffffffffffffffff8111156126ed57600080fd5b6126f987828801612597565b91505092959194509250565b6000806040838503121561271857600080fd5b600061272685828601612543565b925050602061273785828601612558565b9150509250929050565b6000806040838503121561275457600080fd5b600061276285828601612543565b9250506020612773858286016125c1565b9150509250929050565b60006020828403121561278f57600080fd5b600061279d8482850161256d565b91505092915050565b6000602082840312156127b857600080fd5b60006127c684828501612582565b91505092915050565b6000602082840312156127e157600080fd5b60006127ef848285016125c1565b91505092915050565b6128018161336d565b82525050565b6128108161337f565b82525050565b600061282182613215565b61282b818561322b565b935061283b8185602086016133f0565b612844816135bc565b840191505092915050565b600061285a82613220565b612864818561323c565b93506128748185602086016133f0565b61287d816135bc565b840191505092915050565b600061289382613220565b61289d818561324d565b93506128ad8185602086016133f0565b80840191505092915050565b600081546128c681613423565b6128d0818661324d565b945060018216600081146128eb57600181146128fc5761292f565b60ff1983168652818601935061292f565b61290585613200565b60005b8381101561292757815481890152600182019150602081019050612908565b838801955050505b50505092915050565b600061294560328361323c565b9150612950826135cd565b604082019050919050565b600061296860258361323c565b91506129738261361c565b604082019050919050565b600061298b601c8361323c565b91506129968261366b565b602082019050919050565b60006129ae60148361323c565b91506129b982613694565b602082019050919050565b60006129d1600a8361324d565b91506129dc826136bd565b600a82019050919050565b60006129f460248361323c565b91506129ff826136e6565b604082019050919050565b6000612a1760198361323c565b9150612a2282613735565b602082019050919050565b6000612a3a60638361324d565b9150612a458261375e565b606382019050919050565b6000612a5d600b8361324d565b9150612a68826137f9565b600b82019050919050565b6000612a80602c8361323c565b9150612a8b82613822565b604082019050919050565b6000612aa3600d8361324d565b9150612aae82613871565b600d82019050919050565b6000612ac660388361323c565b9150612ad18261389a565b604082019050919050565b6000612ae9602a8361323c565b9150612af4826138e9565b604082019050919050565b6000612b0c60298361323c565b9150612b1782613938565b604082019050919050565b6000612b2f602e8361323c565b9150612b3a82613987565b604082019050919050565b6000612b5260028361324d565b9150612b5d826139d6565b600282019050919050565b6000612b7560208361323c565b9150612b80826139ff565b602082019050919050565b6000612b9860318361323c565b9150612ba382613a28565b604082019050919050565b6000612bbb602c8361323c565b9150612bc682613a77565b604082019050919050565b6000612bde602f8361323c565b9150612be982613ac6565b604082019050919050565b6000612c01600a8361324d565b9150612c0c82613b15565b600a82019050919050565b6000612c2460218361323c565b9150612c2f82613b3e565b604082019050919050565b6000612c47600a8361324d565b9150612c5282613b8d565b600a82019050919050565b6000612c6a601d8361324d565b9150612c7582613bb6565b601d82019050919050565b6000612c8d60318361323c565b9150612c9882613bdf565b604082019050919050565b612cac816133d7565b82525050565b6000612cbe8284612888565b915081905092915050565b6000612cd58285612888565b9150612ce18284612888565b91508190509392505050565b6000612cf98286612888565b9150612d058285612888565b9150612d118284612888565b9150819050949350505050565b6000612d2a82876128b9565b9150612d368286612888565b9150612d428285612888565b9150612d4e8284612888565b9150612d5982612a96565b915081905095945050505050565b6000612d72826129c4565b9150612d7e8284612888565b915081905092915050565b6000612d9482612a50565b9150612da08284612888565b915081905092915050565b6000612db682612bf4565b9150612dc28285612888565b9150612dcd82612a2d565b9150612dd98284612888565b9150612de482612b45565b91508190509392505050565b6000612dfb82612c3a565b9150612e078284612888565b915081905092915050565b6000612e1d82612c5d565b9150612e298284612888565b915081905092915050565b6000602082019050612e4960008301846127f8565b92915050565b6000608082019050612e6460008301876127f8565b612e7160208301866127f8565b612e7e6040830185612ca3565b8181036060830152612e908184612816565b905095945050505050565b6000604082019050612eb060008301856127f8565b612ebd6020830184612ca3565b9392505050565b6000602082019050612ed96000830184612807565b92915050565b60006020820190508181036000830152612ef9818461284f565b905092915050565b60006040820190508181036000830152612f1b818561284f565b9050612f2a6020830184612ca3565b9392505050565b60006060820190508181036000830152612f4b818661284f565b9050612f5a6020830185612ca3565b612f6760408301846127f8565b949350505050565b60006020820190508181036000830152612f8881612938565b9050919050565b60006020820190508181036000830152612fa88161295b565b9050919050565b60006020820190508181036000830152612fc88161297e565b9050919050565b60006020820190508181036000830152612fe8816129a1565b9050919050565b60006020820190508181036000830152613008816129e7565b9050919050565b6000602082019050818103600083015261302881612a0a565b9050919050565b6000602082019050818103600083015261304881612a73565b9050919050565b6000602082019050818103600083015261306881612ab9565b9050919050565b6000602082019050818103600083015261308881612adc565b9050919050565b600060208201905081810360008301526130a881612aff565b9050919050565b600060208201905081810360008301526130c881612b22565b9050919050565b600060208201905081810360008301526130e881612b68565b9050919050565b6000602082019050818103600083015261310881612b8b565b9050919050565b6000602082019050818103600083015261312881612bae565b9050919050565b6000602082019050818103600083015261314881612bd1565b9050919050565b6000602082019050818103600083015261316881612c17565b9050919050565b6000602082019050818103600083015261318881612c80565b9050919050565b60006020820190506131a46000830184612ca3565b92915050565b60006131b46131c5565b90506131c08282613455565b919050565b6000604051905090565b600067ffffffffffffffff8211156131ea576131e961358d565b5b6131f3826135bc565b9050602081019050919050565b60008190508160005260206000209050919050565b600081519050919050565b600081519050919050565b600082825260208201905092915050565b600082825260208201905092915050565b600081905092915050565b6000613263826133d7565b915061326e836133d7565b9250827fffffffffffffffffffffffffffffffffffffffffffffffffffffffffffffffff038211156132a3576132a2613500565b5b828201905092915050565b60006132b9826133d7565b91506132c4836133d7565b9250826132d4576132d361352f565b5b828204905092915050565b60006132ea826133d7565b91506132f5836133d7565b9250817fffffffffffffffffffffffffffffffffffffffffffffffffffffffffffffffff048311821515161561332e5761332d613500565b5b828202905092915050565b6000613344826133d7565b915061334f836133d7565b92508282101561336257613361613500565b5b828203905092915050565b6000613378826133b7565b9050919050565b60008115159050919050565b60007fffffffff0000000000000000000000000000000000000000000000000000000082169050919050565b600073ffffffffffffffffffffffffffffffffffffffff82169050919050565b6000819050919050565b82818337600083830152505050565b60005b8381101561340e5780820151818401526020810190506133f3565b8381111561341d576000848401525b50505050565b6000600282049050600182168061343b57607f821691505b6020821081141561344f5761344e61355e565b5b50919050565b61345e826135bc565b810181811067ffffffffffffffff8211171561347d5761347c61358d565b5b80604052505050565b6000613491826133d7565b91507fffffffffffffffffffffffffffffffffffffffffffffffffffffffffffffffff8214156134c4576134c3613500565b5b600182019050919050565b60006134da826133d7565b91506134e5836133d7565b9250826134f5576134f461352f565b5b828206905092915050565b7f4e487b7100000000000000000000000000000000000000000000000000000000600052601160045260246000fd5b7f4e487b7100000000000000000000000000000000000000000000000000000000600052601260045260246000fd5b7f4e487b7100000000000000000000000000000000000000000000000000000000600052602260045260246000fd5b7f4e487b7100000000000000000000000000000000000000000000000000000000600052604160045260246000fd5b6000601f19601f8301169050919050565b7f4552433732313a207472616e7366657220746f206e6f6e20455243373231526560008201527f63656976657220696d706c656d656e7465720000000000000000000000000000602082015250565b7f4552433732313a207472616e736665722066726f6d20696e636f72726563742060008201527f6f776e6572000000000000000000000000000000000000000000000000000000602082015250565b7f4552433732313a20746f6b656e20616c7265616479206d696e74656400000000600082015250565b7f496e76616c6964206d696e7420616d6f756e7421000000000000000000000000600082015250565b7f54484952445f574f524400000000000000000000000000000000000000000000600082015250565b7f4552433732313a207472616e7366657220746f20746865207a65726f2061646460008201527f7265737300000000000000000000000000000000000000000000000000000000602082015250565b7f4552433732313a20617070726f766520746f2063616c6c657200000000000000600082015250565b7f222c20226465736372697074696f6e223a20224120686967686c79206163636c60008201527f61696d656420636f6c6c656374696f6e206f6620737175617265732e222c202260208201527f696d616765223a2022646174613a696d6167652f7376672b786d6c3b6261736560408201527f36342c0000000000000000000000000000000000000000000000000000000000606082015250565b7f5345434f4e445f574f5244000000000000000000000000000000000000000000600082015250565b7f4552433732313a206f70657261746f7220717565727920666f72206e6f6e657860008201527f697374656e7420746f6b656e0000000000000000000000000000000000000000602082015250565b7f3c2f746578743e3c2f7376673e00000000000000000000000000000000000000600082015250565b7f4552433732313a20617070726f76652063616c6c6572206973206e6f74206f7760008201527f6e6572206e6f7220617070726f76656420666f7220616c6c0000000000000000602082015250565b7f4552433732313a2062616c616e636520717565727920666f7220746865207a6560008201527f726f206164647265737300000000000000000000000000000000000000000000602082015250565b7f4552433732313a206f776e657220717565727920666f72206e6f6e657869737460008201527f656e7420746f6b656e0000000000000000000000000000000000000000000000602082015250565b7f45524337323155524953746f726167653a2055524920736574206f66206e6f6e60008201527f6578697374656e7420746f6b656e000000000000000000000000000000000000602082015250565b7f227d000000000000000000000000000000000000000000000000000000000000600082015250565b7f4552433732313a206d696e7420746f20746865207a65726f2061646472657373600082015250565b7f45524337323155524953746f726167653a2055524920717565727920666f722060008201527f6e6f6e6578697374656e7420746f6b656e000000000000000000000000000000602082015250565b7f4552433732313a20617070726f76656420717565727920666f72206e6f6e657860008201527f697374656e7420746f6b656e0000000000000000000000000000000000000000602082015250565b7f4552433732314d657461646174613a2055524920717565727920666f72206e6f60008201527f6e6578697374656e7420746f6b656e0000000000000000000000000000000000602082015250565b7f7b226e616d65223a202200000000000000000000000000000000000000000000600082015250565b7f4552433732313a20617070726f76616c20746f2063757272656e74206f776e6560008201527f7200000000000000000000000000000000000000000000000000000000000000602082015250565b7f46495253545f574f524400000000000000000000000000000000000000000000600082015250565b7f646174613a6170706c69636174696f6e2f6a736f6e3b6261736536342c000000600082015250565b7f4552433732313a207472616e736665722063616c6c6572206973206e6f74206f60008201527f776e6572206e6f7220617070726f766564000000000000000000000000000000602082015250565b613c378161336d565b8114613c4257600080fd5b50565b613c4e8161337f565b8114613c5957600080fd5b50565b613c658161338b565b8114613c7057600080fd5b50565b613c7c816133d7565b8114613c8757600080fd5b5056fe416e204e465420772f20494420257320686173206265656e206d696e74656420746f2025734142434445464748494a4b4c4d4e4f505152535455565758595a6162636465666768696a6b6c6d6e6f707172737475767778797a303132333435363738392b2fa264697066735822122026ea64e83c32bea8f6303c872c7a00f1c9297cb76f321bd311323c62d274326864736f6c634300080400333c73766720786d6c6e733d27687474703a2f2f7777772e77332e6f72672f323030302f73766727207072657365727665417370656374526174696f3d27784d696e594d696e206d656574272076696577426f783d273020302033353020333530273e3c7374796c653e2e62617365207b2066696c6c3a2077686974653b20666f6e742d66616d696c793a2073657269663b20666f6e742d73697a653a20323470783b207d3c2f7374796c653e3c726563742077696474683d273130302527206865696768743d2731303025272066696c6c3d27626c61636b27202f3e3c7465787420783d273530252720793d273530252720636c6173733d27626173652720646f6d696e616e742d626173656c696e653d276d6964646c652720746578742d616e63686f723d276d6964646c65273e",
    "linkReferences": {},
    "deployedLinkReferences": {}
}